S01300006F75747075742F6D61696E2E737265638C
S11300000C943A000C9457000C9457000C9457002D
S11300100C9457000C9457000C9457000C94570000
S11300200C9457000C9457000C9457000C945700F0
S11300300C9457000C9457000C9457000C945700E0
S11300400C9457000C9457000C9457000C945700D0
S11300500C9457000C9457000C9457000C945700C0
S11300600C9457000C9457006364696E6F70737539
S113007078585B0011241FBECFEFD8E0DEBFCDBFA0
S113008012E0A0E0B1E0E4E8F9E102C005900D92CD
S1130090A230B107D9F722E0A2E0B2E001C01D927C
S11300A0AA31B207E1F70E94DC050C94C00C0C9451
S11300B00000CF93C82F8A3019F48DE00E945900B4
S11300C08091C00085FFFCCFC093C600CF910895F6
S11300D08091C00087FFFCCF8091C6000895CF9324
S11300E02091C00027FFFCCFC091C600BC018C2F1B
S11300F00E9459008C2FCF91089530E020E040ED0C
S113010057E02817390709F40895FA013197F1F7F0
S11301102F5F3F4FF6CF30E020E042E050E0281759
S1130120390709F40895FA013197F1F72F5F3F4F2A
S1130130F6CF1F93CF93DF93182FEB01259A8823D3
S113014081F0209751F02D9ACE010E947D002D98C8
S1130150CE010E947D001150B1F7DF91CF911F9124
S11301600895209749F02D9ACE010E947D002D9884
S1130170CE010E947D00F7CF1D9B02C02D98EDCFCC
S11301802D9AEBCF1092C50083E38093C400E0EC7A
S1130190F0E080818D7F808386E08093C20088E1D7
S11301A08093C100E4E1F2E08CE191E093838283E7
S11301B08EE091E09183808389E590E0909305023D
S11301C08093040208952091C00027FF06C0209167
S11301D0C600FC01208381E0089580E00895FC01BD
S11301E0CB01309709F00994E0910202F0910302E7
S11301F0309741F09F012F5F3F4F309303022093CC
S1130200020260830895BC0180910402909105026A
S11302100C94EF002F923F924F925F926F927F92D5
S11302208F929F92AF92BF92CF92DF92EF92FF9202
S11302300F931F93CF93DF93CDB7DEB7A8970FB675
S1130240F894DEBF0FBECDBF2C013B017A019E01A5
S11302502F5F3F4F3AA329A3D3016C91662309F47E
S1130260B5C1653261F0BFEF6B1A7B0A062E000C34
S1130270770BC2010E94EF00FCA2EBA239C1F3018B
S11302802181203309F041C033962DA312962C917D
S1130290B12CA12C312C212C2A3209F054C0C701D5
S11302A00296D7012D903C9037FE06C031942194DC
S11302B0310822E0A22EB12C3F01BFEF6B1A7B0A5A
S11302C020817C010FEF1FEF2E3209F04CC0D301C7
S11302D02C912A3209F43DC0F301319610E000E07C
S11302E03F0180ED820F8A3008F03DC0AAE0A09F54
S11302F0C001A19F900D11248C01020F111D27FD37
S11303001A95005311092191EBCF2D3221F0329629
S1130310B0E2BDA3BDCF339612962C91B0E2BDA33B
S113032032E0A32EB12CB6CF3AE0329DC001339D0A
S1130330900D11241C01220E311C27FD3A9480E3F8
S1130340281A310821913F0180ED820F8A3060F331
S1130350B9CFF7010081118111962C9132967F015A
S1130360C30102963C012C3639F46894A2F8F301D7
S11303702081C30101963C01222309F427C12436BC
S113038009F4A7C064F4223609F400C10CF0A4C037
S1130390283509F49BC0622F220F770B6ACF2337CD
S11303A009F4A9C00CF08DC0E8E0F0E02F3699F70D
S11303B0C701A2FEEEC004969CA38BA3D7014D9166
S11303C05D916D917C91243659F477FF09C0709545
S11303D06095509541955F4F6F4F7F4F6894A0F89B
S11303E0B42FA52FCB01283709F0E3C027E228A7B3
S11303F09E012F5F3F4F3FA32EA3912C812C6F01B1
S1130400F12CE12C6B2F7A2FA70196010E94B906DB
S1130410762FB22FA32FCA016A3014F078A5760F75
S113042084010F5F1F4F60E3670FEEA1FFA161938B
S1130430FFA3EEA3232B242B252B39F00032110527
S113044009F0BAC08FE1882E912CA0FE0BC0E1E028
S1130450F0E0EC0FFD1FE00FF11F2DE2208384017B
S11304600E5F1F4F780132E0A322BB248DA1882E9A
S1130470880F9908A114B10421F4E214F30408F4D8
S11304809DC0A1E0B0E0AC0FBD1F0A0F1B1FF80117
S113049062918F01062E000C770BC2010E94EF00BF
S11304A029A13AA12017310791F7E214F30400F5CA
S11304B060E270E0C2010E94EF003FEFE31AF30A2A
S11304C0F4CF253731F0283709F065CFE0E1F0E0CB
S11304D06FCFEAE0F0E06CCFD7011296BCA3ABA3D8
S11304E0F7016081062E000C770BC2010E94EF0019
S11304F0EBA0FCA0B1CE97012E5F3F4F3CA32BA3F2
S1130500D701CD90DC90C114D10421F49BE4C92E11
S113051091E0D92EC6010E94DB067C0117FD04C0C0
S11305200817190708F47801E2E0AE22BB24FDA104
S11305308F2EFF0F990807C0B401C2010E94EF007B
S1130540BFEFEB1AFB0AA114B10419F4E214F3048B
S113055098F3D6016D916D01662319F0011511050B
S113056061F4E214F30420F660E270E0C2010E9438
S1130570EF00BFEFEB1AFB0AF4CF062E000C770B4B
S1130580C2010E94EF0001501109E3CFE2E0F0E064
S11305900FCF02969CA38BA3D7014D915C9170E081
S11305A060E0243609F01CCF052E000C660B770B97
S11305B00CCF37E038A71CCF480124CFB401C201C7
S11305C00E94EF009FEFE91AF90A54CFA8960FB6DC
S11305D0F894DEBF0FBECDBFDF91CF911F910F9175
S11305E0FF90EF90DF90CF90BF90AF909F908F904F
S11305F07F906F905F904F903F902F9008950F934E
S11306001F93CF93DF938C01EB016991611105C0B6
S1130610DF91CF911F910F910895062E000C770B57
S1130620C8010E94EF00F1CFBC01809104029091B7
S113063005020C94FF02CF93DF93CDB7DEB7AE0172
S11306404B5F5F4FFA0161917191AF018091040298
S1130650909105020E940A01DF91CF910895CF93F2
S1130660DF93CDB7DEB7AE01475F5F4F6F8178850B
S11306708D819E810E940A01DF91CF910895CF93CD
S1130680DF93CDB7DEB78D819E8190930302809373
S11306900202AE01475F5F4F6F81788590E080E092
S11306A00E940A01E0910202F0910302108210926A
S11306B0030210920202DF91CF91089580E28093A9
S11306C0B8001092B90084E48093BC0008952AEC29
S11306D074EA34E8E82FE160215009F46EC07093A5
S11306E0BC009091BC0097FFFCCF9091B900987F1B
S11306F0903129F0983399F3983009F05EC08093D3
S1130700BB003093BC009091BC0097FFFCCF90914C
S1130710B900987F903201F3983309F3983191F539
S11307206093BB003093BC009091BC0097FFFCCF5A
S11307309091B900987F9033D1F1983381F2983237
S113074009F57093BC009091BC0097FFFCCF909189
S1130750B900987F903121F0983309F2983091F4E0
S1130760E093BB003093BC009091BC0097FFFCCF9A
S11307709091B900987F903441F09834C1F0983347
S113078009F4ADCF8FEF9FEF14C084E88093BC00D1
S11307908091BC0087FFFCCF8091B900887F8035B1
S11307A031F0883579F78091BB00FA01808390E0BD
S11307B080E024E92093BC0008958FEF9FEF089513
S11307C029EC74EA34E8215009F44AC07093BC005F
S11307D09091BC0097FFFCCF9091B900987F903125
S11307E021F0983399F39830D9F58093BB00309376
S11307F0BC009091BC0097FFFCCF9091B900987F0A
S1130800903209F3983311F3983139F56093BB00B2
S11308103093BC009091BC0097FFFCCF9091B9003D
S1130820987F9033A1F0983389F29832B1F4FA01A9
S113083080818093BB0084E88093BC008091BC00DD
S113084087FFFCCF8091B900887F883231F490E033
S113085080E024E92093BC0008958FEF9FEFF9CF47
S11308608FEF9FEF0895CF92DF92EF92FF920F9355
S11308701F93CF93DF93B0E0A0E014EA74E804E997
S1130880C62FD0E07E01E40EF51EE62FE760F0E00F
S1130890EE15FF050CF460C0F70199ECF92EFA94FB
S11308A0FF2009F474C01093BC009091BC0097FF22
S11308B0FCCF9091B900987F903129F0983399F347
S11308C0983009F061C08093BB007093BC00909194
S11308D0BC0097FFFCCF9091B900987F9032F9F259
S11308E0983309F3983109F04CC06093BB007093BE
S11308F0BC009091BC0097FFFCCF9091B900987F09
S11309009033E1F1983379F29832D9F57F01EC1AFA
S1130910FD0AE901F0E0E0E06701CE1ADF0A1C14E9
S11309201D04E4F00093BC00EF3FFE0781F16E0F5D
S11309304E1B5F0B2E0F3F1FAE0FBF1F1416150665
S11309400CF49ECFCD01DF91CF911F910F91FF90B9
S1130950EF90DF90CF90089531969FCF9991909327
S1130960BB007093BC009091BC0097FFFCCF9091AA
S1130970B900987F983229F43196CECFF0E0E0E0C8
S1130980D1CFEFEFFFEFCECFEFEFFFEFCDCFAFEF54
S1130990BFEFD8CF79ECF4EAE4E8A82FA160715056
S11309A009F485C0F093BC009091BC0097FFFCCF84
S11309B09091B900987F903129F0983399F3983049
S11309C009F075C08093BB00E093BC009091BC001B
S11309D097FFFCCF9091B900987F903201F3983340
S11309E009F3983191F56093BB00E093BC009091BA
S11309F0BC0097FFFCCF9091B900987F903341F1F0
S1130A00983381F2983209F5F093BC009091BC00C0
S1130A1097FFFCCF9091B900987F903121F09833E3
S1130A2009F2983091F4A093BB00E093BC0090913C
S1130A30BC0097FFFCCF9091B900987F903471F07F
S1130A40983431F0983309F4ADCF8FEF9FEF02C0A3
S1130A5090E080E024E92093BC000895F90190E03F
S1130A6080E034EC64E814161506A4F7413051050F
S1130A70D9F46093BC002091BC0027FFFCCF2091E7
S1130A80B900287F203521F02835F9F650E040E000
S1130A902091BB00219301962091B900287F28352D
S1130AA0C9F241505109DFCF3093BC00E4CF8FEF3E
S1130AB09FEF08952DE032E047E050E0662321F0F7
S1130AC060E00E94CA04089560E00E94330408951F
S1130AD06AE00E94AD068295807F890F0895982F61
S1130AE092959F708F702AE0929F800D1124089533
S1130AF00F931F93CF93DF93809106028F77809398
S1130B000602809107028F77809307028091080282
S1130B108F73809308028091090287708093090281
S1130B2080910A028F7380930A0280910B028F7165
S1130B3080930B02C6E0D2E00DE012E089910E949E
S1130B406805F80181938F01F2E0CD30DF07B1F73A
S1130B50DF91CF911F910F9108950F931F93CF931E
S1130B60DF93CDE0D2E006E012E089910E946F05A8
S1130B70F80181938F01F2E0C431DF07B1F7DF910F
S1130B80CF911F910F910895CF93DF931F92CDB70B
S1130B90DEB790E161110EC090E841110BC01982DB
S1130BA0AE014F5F5F4F67E00E94E0030F90DF915B
S1130BB0CF9108959983F4CFCF93DF93CDB7DEB768
S1130BC028970FB6F894DEBF0FBECDBF0E94C200B7
S1130BD00E945E038E01085F1F4FA80160E080ED54
S1130BE00E94E0038AE291E09F938F930E941B038B
S1130BF00F900F90CE0101967C016E0192E0C90E18
S1130C00D11C5E0123E0A20EB11C4E0184E0880ECB
S1130C10911C1E0195E0290E311C2E0126E0420E86
S1130C20511C3E0187E0680E711C1F930F938CE4E6
S1130C3091E09F938F930E94FA0688850F900F90FE
S1130C400F900F90803771F561E080ED0E945A0596
S1130C500E94AD05809106021F928F938091070236
S1130C601F928F93809108021F928F9380910902A3
S1130C701F928F9380910A021F928F9380910B028F
S1130C801F928F9380910C021F928F938FE491E0B7
S1130C909F938F930E94E4060FB6F894DEBF0FBEB5
S1130CA0CDBFC3CF833709F04CC081E891E09F9357
S1130CB08F930E94E406FF92EF92DF92CF92BF924D
S1130CC0AF929F928F923F922F925F924F927F9218
S1130CD06F9285EB91E09F938F930E94FA06F70140
S1130CE0A6E0B2E00FB6F894DEBF0FBECDBF81918F
S1130CF08D93E017F107D9F70E94780560E080ED45
S1130D000E945A05809106021F928F9380910702D8
S1130D101F928F93809108021F928F9380910902F2
S1130D201F928F9380910A021F928F9380910B02DE
S1130D301F928F9380910C021F928F9388ED91E004
S1130D40A7CF883609F071CF8AE291E09F938F9301
S1130D500E94E4060F900F9068CF991B79E004C0BD
S1130D60991F961708F0961B881F7A95C9F78095E6
S1130D700895A1E21A2EAA1BBB1BFD010DC0AA1FD8
S1130D80BB1FEE1FFF1FA217B307E407F50720F0F0
S1130D90A21BB30BE40BF50B661F771F881F991F6B
S1130DA01A9469F760957095809590959B01AC01B4
S1130DB0BD01CF010895FC0101900020E9F7809561
S1130DC090958E0F9F1F0895B0E0A0E0EAEEF6E044
S1130DD00C94990CAE014B5F5F4FFA0161917191D4
S1130DE0AF0180911602909117020E941007E2E071
S1130DF00C94B50CB0E0A0E0E0E0F7E00C94990CA2
S1130E00AE014B5F5F4FFA0161917191AF01809127
S1130E101402909115020E94750AE2E00C94B50C3C
S1130E20ABE0B0E0E6E1F7E00C94890C7C013B0117
S1130E308A01FC0117821682838181FFC8C1CE0119
S1130E4001965C01F7019381F30193FD859193FF72
S1130E5081913F01882309F453C1853239F493FD0C
S1130E60859193FF81913F01853229F4B70190E088
S1130E700E94E00BE7CF912C212C312CFFE1F315DC
S1130E8038F08B3211F190F4803209F1833229F178
S1130E9037FC3CC020ED280F2A3050F536FE20C028
S1130EA08AE0989E200D1124922E06C08D3291F076
S1130EB0803371F7689430F8F30193FD859193FFC3
S1130EC081913F018111DACF21C0689431F868948F
S1130ED032F8F2CF689433F8EFCF689434F8ECCF5B
S1130EE0EAE02E9E200D1124222E689435F8E4CFDA
S1130EF08E3229F436FC04C1689436F8DDCF8C3682
S1130F0019F4689437F8D8CF8836B1F2982F9F7DBA
S1130F1095549330E0F08336A1F18337C1F18335E2
S1130F2009F063C02801F2E04F0E511CF801C080A3
S1130F30D180692D70E036FC02C06FEF7FEFC601EF
S1130F400E948E0B4C01689437F882010AC00C5F32
S1130F501F4FFFE3F98388248394912C6501E8945F
S1130F6037F833FE2DC0522C8114910471F55520AD
S1130F7009F468CFB70180E290E00E94E00B5A9434
S1130F80F6CFF801808189830E5F1F4FE4CF2801DB
S1130F90F2E04F0E511CF801C080D180692D70E041
S1130FA036FC02C06FEF7FEFC6010E94990B4C0123
S1130FB08201D5CFB70180E290E00E94E00B2A9431
S1130FC02814190409F0B0F7CECFF60137FC859147
S1130FD037FE81916F01B70190E00E94E00B511040
S1130FE05A94F1E08F1A9108BFCF843619F08936EC
S1130FF009F077C0F80137FE6BC06081718182818E
S113100093810C5F1F4FF32DFF763F2E97FF09C08E
S113101090958095709561957F4F8F4F9F4F689401
S113102037F82AE030E0A5010E94280CC82ECA181F
S11310308C2C432C36FE0CC0E89440F8C91440F4C0
S113104034FE05C032FC03C0F32DFE7E4F2E892CE6
S113105044FE95C0FE01EC0DF11D8081803309F042
S113106087C0242D297E422E842D8870582E43FC5F
S113107095C040FE8FC09C2C821418F42C0C922C2A
S1131080981844FE91C0B70180E390E00E94E00B01
S113109042FE09C088E790E041FE02C088E590E086
S11310A0B7010E94E00BC91408F48AC0CA94D12C79
S11310B09FEFC91AD90ACA0CDB1CF60182916F0191
S11310C0B70190E00E94E00BAC14BD04B1F74FCF20
S11310D060817181072E000C880B990B0E5F1F4FE6
S11310E092CFD32CE894D4F82AE030E0853739F154
S11310F0232D297FD22E8F3601F148F48835A9F0AB
S1131100F701868197812B96E2E10C94A50C803738
S113111049F08837A9F7D4FE02C06894D2F820E1D8
S113112030E00DC06894D4F8F6CF34FE03C0822FAB
S11311308660D82E20E132E002C028E030E0F801D9
S1131140D7FE0FC060817181828193810C5F1F4F34
S1131150A5010E94280CC82ECA183D2CE89437F823
S113116067CF6081718190E080E00E5F1F4FF0CF08
S113117042FC02C0839478CF8394839475CF842DEA
S1131180867809F471CFF6CFB70180E290E00E942F
S1131190E00B83948214C0F3512C73CF522C581853
S11311A0821408F46ECFF8CF842D867809F47BCFAF
S11311B08BE241FE80E247FC8DE2B70190E071CF03
S11311C0B70180E390E00E94E00B9A946CCF8FEF1C
S11311D09FEF99CF20FD09C0FC0123FD05C022FF2C
S11311E002C07383628351834083089544FD17C012
S11311F046FD1DC0DB01FC01AA0FBB1FEE1FFF1F34
S11312001094D1F76A0F7B1F8E1F9F1F660F771FE5
S1131210881F991F620F711D811D911D089533E070
S1131220660F771F881F991F3150D1F7F3CF34E031
S1131230F7CF0F931F93CF93DF938C01C8010E94C4
S1131240A40BEC0197FD08C00E947A0B892BB1F71F
S1131250B801CE010E94100CCE01DF91CF911F91F5
S11312600F9108958F929F92AF92BF92EF92FF9247
S11312700F931F93CF93DF938C01D62F7A01B22E55
S11312800E94A40B9C0133272B32310529F02D3207
S11312903105A9F46894B7F8D15061F480E0DF9186
S11312A0CF911F910F91FF90EF90BF90AF909F90BF
S11312B08F900895C8010E94A40B97FDEFCFCB2D0A
S11312C0CD7F2B2D2073F9F48033E9F4AA24AA945A
S11312D0AD0E89F0C8010E94A40B97FD0CC0282F05
S11312E02F7D283561F4C264D25029F0C8010E94D0
S11312F0A40B97FF08C0812C912C54011BC0B6FE8F
S11313002BC0C260DA2D812C912C540120ED280FC2
S1131310283028F1C4FD09C02A3008F1C6FF05C0F1
S11313202F7D3FEE320F3630C8F0B8010E94100C0A
S1131330C1FFB4CFC7FF08C0B094A0949094809428
S1131340811C911CA11CB11C2C2FB501A401C70147
S11313500E94EA0881E0A3CFC261D4CF27504C2F6A
S1131360C501B4010E94F6084B015C01C260D15072
S113137009F3C8010E94A40B97FFC8CFD9CFA0E2FC
S1131380B0E0E5ECF9E00C948E0C5C01962E7A0149
S1131390CE0101966C0180E2F60111928A95E9F77B
S11313A0F501B381890130E020E0712C812CA0E0AB
S11313B041E050E0F801B3FD8591B3FF8191982F8E
S11313C08F01811107C010E000E0C801A096EDE094
S11313D00C94AA0C8E3519F42115310541F1A2178C
S11313E013064CF48D3549F18D3229F4811006C071
S11313F0882483941DC0882009F464C0E92FE695ED
S1131400E695E695EC0DFD2DF11D892F8770BA0147
S113141001C0660F8A95EAF78081682B608379168C
S113142051F0971510F49F5FE9CF9150E7CFA1E0F9
S11314302F5F3F4FBFCF812CFBCF882019F08E81C7
S113144080628E83AA2359F0F6019E012F5D3F4FDF
S11314508081809580833196E217F307C9F7882449
S11314608394C5010E94A40B97FD16C0E82FE6954E
S1131470E695E695EC0DFD2DF11D208130E0AC01E3
S11314804770552702C0359527954A95E2F720FD08
S113149006C0B5010E94100C882069F094CFE114B5
S11314A0F10429F0F7018083C70101967C019A9425
S11314B0812C9110D6CFE114F10409F486CFF70101
S11314C0108283CFE82FE695E695E695EC0DFD2D89
S11314D0F11D982F9770BA0101C0660F9A95EAF72B
S11314E09081692B6083782EA3CFB0E0A0E0EBE776
S11314F0FAE00C948C0C6C01EB015A01FC0117828C
S11315001682512CF601E380FE01E3FC8591E3FE93
S11315108191182FEF018823E9F090E00E947A0B63
S1131520892B21F0C6010E941909ECCF153241F430
S1131530FE01E3FC1591E3FE1191EF01153269F40C
S1131540C6010E94A40B97FD8EC01817D9F2B601EC
S11315500E94100C852D90E08AC000E01A3231F40C
S1131560E3FC1591E3FE1191EF0101E0F12C20ED74
S1131570210F2A3048F101FF37C0FF2059F31836F4
S1131580B1F11C3609F43DC0112321F3612F70E041
S113159088E690E00E94830B892BE1F2912C812C48
S11315A000FD06C0F50180809180C50102965C01B2
S11315B01E3679F5F6014681578170E060E0202FF0
S11315C0C4010E94EA089ECF02606F2D70E090E093
S11315D080E040E20E94F608F62EFE01E3FC15913D
S11315E0E3FE1191EF01C3CFFF24FA94C8CFFE01AB
S11315F0E3FC1591E3FE1191EF01183609F0C4CF15
S113160008600460FE01E3FC1591E3FE1191EF0113
S1131610BBCF1336C1F401FD02C0FF24F394C6010D
S11316200E94A40B97FD1FC08114910429F0F401BA
S11316308083C40101964C01FA94F110F0CF00FDAF
S113164061CF53945FCF1B35B9F49E01A4016F2D74
S1131650C6010E94BF09EC01892B89F7F601838139
S1131660807309F477CF8FEF9FEF511073CFCDB70D
S1131670DEB7EFE00C94A80CC6010E94190997FD8F
S1131680F2CF1F36A9F130F4143641F0193639F08F
S1131690006405C01337B9F01537D1F70062202F65
S11316A0A4016F2DC6010E9432098111C8CFD6CF83
S11316B08114910429F0F4016082C40101964C0163
S11316C0FA94FF2071F0C6010E94A40B3C0197FD1F
S11316D008C00E947A0B892B59F3B601C3010E94FA
S11316E0100C8114910409F4AACFF4011082A7CF3D
S11316F00061D5CF91110C94860C803219F0895079
S11317008550C8F70895FC010590061621F00020C5
S1131710D9F7C00108953197CF010895FC010590D0
S1131720615070400110D8F7809590958E0F9F1FDF
S11317300895FC016150704001900110D8F7809524
S113174090958E0F9F1F0895CF93DF93EC012B810B
S113175020FF1AC026FF0CC02F7B2B838E819F8114
S113176001969F838E838A8190E0DF91CF910895C3
S113177022FF18C0E881F9818081082E000C990BA2
S1131780009729F420622B838FEF9FEFEECF3196E1
S1131790F983E8832E813F812F5F3F4F3F832E8360
S11317A09927E3CFEA85FB85099597FFF3CF2B8132
S11317B0019621F080E2822B8B83E6CF80E1FBCF80
S11317C00F931F93CF93DF93182F092FEB018B8176
S11317D081FD09C01FEF0FEF812F902FDF91CF9173
S11317E01F910F91089582FF14C02E813F818C8137
S11317F09D81281739073CF4E881F981CF010196CE
S11318009983888310838E819F8101969F838E8321
S1131810E3CFE885F985812F0995892BA1F3DACFE8
S1131820FB01238120FF11C026FD0FC08F3F9807C5
S113183071F082832F7D2064238326813781215098
S1131840310937832683992708958FEF9FEF0895F1
S1131850FA01AA27283051F1203181F1E8946F93DD
S11318606E7F6E5F7F4F8F4F9F4FAF4FB1E03ED083
S1131870B4E03CD0670F781F891F9A1FA11D680F21
S1131880791F8A1F911DA11D6A0F711D811D911D54
S1131890A11D20D009F468943F912AE0269F1124C9
S11318A03019305D3193DEF6CF010895462F47702D
S11318B0405D4193B3E00FD0C9F7F6CF462F4F7088
S11318C0405D4A3318F0495D31FD4052419302D0E6
S11318D0A9F7EACFB4E0A69597958795779567958C
S11318E0BA95C9F700976105710508959B01AC018C
S11318F00A2E06945795479537952795BA95C9F7B3
S1131900620F731F841F951FA01D089599278827B0
S113191008952F923F924F925F926F927F928F928F
S11319209F92AF92BF92CF92DF92EF92FF920F936A
S11319301F93CF93DF93CDB7DEB7CA1BDB0B0FB674
S1131940F894DEBF0FBECDBF09942A883988488831
S11319505F846E847D848C849B84AA84B984C884C7
S1131960DF80EE80FD800C811B81AA81B981CE0FBE
S1131970D11D0FB6F894DEBF0FBECDBFED010895A3
S1071980F894FFCF05
S1131984000000030000000059006F000000000084
S113199400010000000000006800000000000002D4
S11319A400000000590000000000703A20707269C1
S11319B46E743B20202020733A207365743B2020EE
S11319C42020683A2068656C703B0A002563006334
S11319D4757272656E742074696D653A20253032AF
S11319E4642D253032642D25303264092530326467
S11319F409253032643A253032643A253032640A97
S1131A0400696E7075742074696D653A2079656136
S1131A1472206D6F6E746820646179207765656BDC
S1131A2420686F7572206D696E75746520736563C3
S1131A346F6E640A0025686875202568687520251A
S1131A446868752025686875202568687520256888
S1131A546875202568687500646F6E653A202530C2
S1131A6432642D253032642D253032640925303218
S1131A746409253032643A253032643A25303264BC
S1051A840A0052
S9030000FC
