:100000000C9434000C9451000C9451000C94510049
:100010000C9451000C9451000C9451000C9451001C
:100020000C9451000C9451000C9451000C9451000C
:100030000C9451000C9451000C9451000C945100FC
:100040000C9451000C9451000C9451000C945100EC
:100050000C9451000C9451000C9451000C945100DC
:100060000C9451000C94510011241FBECFEFD8E026
:10007000DEBFCDBF11E0A0E0B1E0E2E4F7E002C0F6
:1000800005900D92AE32B107D9F721E0AEE2B1E0B2
:1000900001C01D92A833B207E1F70E9458030C94E7
:1000A0009F030C940000CF93C82F8A3019F48DE081
:1000B0000E9453008091C00085FFFCCFC093C60012
:1000C000CF9108958091C00087FFFCCF8091C6003A
:1000D0000895CF932091C00027FFFCCFC091C600A8
:1000E000BC018C2F0E9453008C2FCF91089530E0DB
:1000F00020E040ED57E02817390709F40895FA0188
:100100003197F1F72F5F3F4FF6CF30E020E042E02C
:1001100050E02817390709F40895FA013197F1F7EB
:100120002F5F3F4FF6CF1F93CF93DF93182FEB0135
:10013000259A882381F0209751F02D9ACE010E94B4
:1001400077002D98CE010E9477001150B1F7DF9112
:10015000CF911F910895209749F02D9ACE010E94CA
:1001600077002D98CE010E947700F7CF1D9B02C02B
:100170002D98EDCF2D9AEBCF1092C50083E380939D
:10018000C400E0ECF0E080818D7F808386E0809386
:10019000C20088E18093C100E2E3F1E08CE191E0EC
:1001A000938382838EE091E09183808383E590E066
:1001B000909331018093300108952091C00027FF72
:1001C00006C02091C600FC01208381E0089580E0F4
:1001D0000895FC01CB01309709F00994E0912E01BC
:1001E000F0912F01309741F09F012F5F3F4F3093E7
:1001F0002F0120932E0160830895BC01809130016E
:10020000909131010C94E9002F923F924F925F92AE
:100210006F927F928F929F92AF92BF92CF92DF9216
:10022000EF92FF920F931F93CF93DF93CDB7DEB77B
:10023000A8970FB6F894DEBF0FBECDBF2C013B01CF
:100240007A019E012F5F3F4F3AA329A3D3016C91FE
:10025000662309F4B5C1653261F0BFEF6B1A7B0A02
:10026000062E000C770BC2010E94E900FCA2EBA253
:1002700039C1F3012181203309F041C033962DA308
:1002800012962C91B12CA12C312C212C2A3209F060
:1002900054C0C7010296D7012D903C9037FE06C08E
:1002A00031942194310822E0A22EB12C3F01BFEFFE
:1002B0006B1A7B0A20817C010FEF1FEF2E3209F0B1
:1002C0004CC0D3012C912A3209F43DC0F301319680
:1002D00010E000E03F0180ED820F8A3008F03DC061
:1002E000AAE0A09FC001A19F900D11248C01020FD4
:1002F000111D27FD1A95005311092191EBCF2D32C5
:1003000021F03296B0E2BDA3BDCF339612962C9168
:10031000B0E2BDA332E0A32EB12CB6CF3AE0329DBD
:10032000C001339D900D11241C01220E311C27FDAC
:100330003A9480E3281A310821913F0180ED820F21
:100340008A3060F3B9CFF7010081118111962C91A9
:1003500032967F01C30102963C012C3639F4689431
:10036000A2F8F3012081C30101963C01222309F484
:1003700027C1243609F4A7C064F4223609F400C169
:100380000CF0A4C0283509F49BC0622F220F770B14
:100390006ACF233709F4A9C00CF08DC0E8E0F0E083
:1003A0002F3699F7C701A2FEEEC004969CA38BA33B
:1003B000D7014D915D916D917C91243659F477FF71
:1003C00009C070956095509541955F4F6F4F7F4F75
:1003D0006894A0F8B42FA52FCB01283709F0E3C00B
:1003E00027E228A79E012F5F3F4F3FA32EA3912C0A
:1003F000812C6F01F12CE12C6B2F7A2FA701960134
:100400000E947403762FB22FA32FCA016A3014F012
:1004100078A5760F84010F5F1F4F60E3670FEEA191
:10042000FFA16193FFA3EEA3232B242B252B39F0EF
:100430000032110509F0BAC08FE1882E912CA0FE80
:100440000BC0E1E0F0E0EC0FFD1FE00FF11F2DE22B
:10045000208384010E5F1F4F780132E0A322BB246A
:100460008DA1882E880F9908A114B10421F4E214FB
:10047000F30408F49DC0A1E0B0E0AC0FBD1F0A0F6B
:100480001B1FF80162918F01062E000C770BC20131
:100490000E94E90029A13AA12017310791F7E2143F
:1004A000F30400F560E270E0C2010E94E9003FEF52
:1004B000E31AF30AF4CF253731F0283709F065CF76
:1004C000E0E1F0E06FCFEAE0F0E06CCFD701129608
:1004D000BCA3ABA3F7016081062E000C770BC20111
:1004E0000E94E900EBA0FCA0B1CE97012E5F3F4F28
:1004F0003CA32BA3D701CD90DC90C114D10421F4EF
:100500009DE2C92E91E0D92EC6010E9496037C017E
:1005100017FD04C00817190708F47801E2E0AE22BD
:10052000BB24FDA18F2EFF0F990807C0B401C201A3
:100530000E94E900BFEFEB1AFB0AA114B10419F401
:10054000E214F30498F3D6016D916D01662319F05E
:100550000115110561F4E214F30420F660E270E085
:10056000C2010E94E900BFEFEB1AFB0AF4CF062E8E
:10057000000C770BC2010E94E90001501109E3CF82
:10058000E2E0F0E00FCF02969CA38BA3D7014D9140
:100590005C9170E060E0243609F01CCF052E000C61
:1005A000660B770B0CCF37E038A71CCF480124CF60
:1005B000B401C2010E94E9009FEFE91AF90A54CF81
:1005C000A8960FB6F894DEBF0FBECDBFDF91CF91D6
:1005D0001F910F91FF90EF90DF90CF90BF90AF9061
:1005E0009F908F907F906F905F904F903F902F9053
:1005F00008950F931F93CF93DF938C01EB016991C3
:10060000611105C0DF91CF911F910F910895062EC2
:10061000000C770BC8010E94E900F1CFBC0180916A
:100620003001909131010C94F902CF93DF93CDB753
:10063000DEB7AE014B5F5F4FFA0161917191AF017F
:1006400080913001909131010E940401DF91CF919E
:100650000895CF93DF93CDB7DEB7AE01475F5F4F0D
:100660006F8178858D819E810E940401DF91CF91F9
:100670000895CF93DF93CDB7DEB78D819E819093A0
:100680002F0180932E01AE01475F5F4F6F81788508
:1006900090E080E00E940401E0912E01F0912F0192
:1006A000108210922F0110922E01DF91CF910895A8
:1006B0000E94BC00C0E00AE211E070E060E080E06F
:1006C0000E949300D1E0DC0F1F92CF931F930F93F2
:1006D0000E94150388EE93E00E9477000F900F9020
:1006E0000F900F90CD2FE9CFA1E21A2EAA1BBB1BB2
:1006F000FD010DC0AA1FBB1FEE1FFF1FA217B307EE
:10070000E407F50720F0A21BB30BE40BF50B661F03
:10071000771F881F991F1A9469F7609570958095C7
:1007200090959B01AC01BD01CF010895FC010190A2
:100730000020E9F7809590958E0F9F1F0895F894FB
:02074000FFCFE9
:1007420000000003000000005300690000000000E8
:100752000001000000000000620000000000000232
:0E0762000000000053000000000025640A00A3
:00000001FF
