S01300006F75747075742F6D61696E2E737265638C
S11300000C9434000C9451000C9451000C94510045
S11300100C9451000C9451000C9451000C94510018
S11300200C9451000C9451000C9451000C94510008
S11300300C9451000C9451000C9451000C945100F8
S11300400C9451000C9451000C94BD030C94510079
S11300500C94EF030C9451000C9451000C94510037
S11300600C9451000C94510011241FBECFEFD8E022
S1130070DEBFCDBF11E0A0E0B1E0E0EAF8E002C0ED
S113008005900D92AC32B107D9F721E0ACE2B1E0B2
S113009001C01D92A735B207E1F70E9416040C9423
S11300A04E040C940000CF93C82F8A3019F48DE0CD
S11300B00E9453008091C00085FFFCCFC093C6000E
S11300C0CF9108958091C00087FFFCCF8091C60036
S11300D00895CF932091C00027FFFCCFC091C600A4
S11300E0BC018C2F0E9453008C2FCF9108950F9345
S11300F01F93CF93DF93CDB7DEB7EF81F8854985A2
S11301005A859E01255F3F4F90E080E061E070E0FA
S1130110D9018417150644F08081892B8083DF91EF
S1130120CF911F910F9108952E5F3F4F8B010C903B
S113013002C0000F111F0A94E2F7902B8F5FE8CFE3
S11301400F931F93CF93DF93CDB7DEB7EF81F8857D
S113015049855A859E01255F3F4F9FEF80E001E06E
S113016010E0D9018417150644F080818923808327
S1130170DF91CF911F910F9108952E5F3F4FB801EA
S11301800C9002C0660F771F0A94E2F76095709591
S113019096238F5FE6CF30E020E040ED57E028174C
S11301A0390709F40895FA013197F1F72F5F3F4FAA
S11301B0F6CF30E020E042E050E02817390709F498
S11301C00895FA013197F1F72F5F3F4FF6CF1F9350
S11301D0CF93DF93182FEB01259A882381F0209782
S11301E051F02D9ACE010E94CB002D98CE010E9491
S11301F0CB001150B1F7DF91CF911F910895209753
S113020049F02D9ACE010E94CB002D98CE010E9478
S1130210CB00F7CF1D9B02C02D98EDCF2D9AEBCFCD
S11302201092C50083E38093C400E0ECF0E0808189
S11302308D7F808386E08093C20088E18093C10033
S1130240E1E5F1E08CE191E0938382838EE091E03B
S11302509183808383E590E09093300180932F0114
S113026008952091C00027FF06C02091C600FC011C
S1130270208381E0089580E00895FC01CB0130974C
S113028009F00994E0912C01F0912D01309741F08F
S11302909F012F5F3F4F30932D0120932C016083EA
S11302A00895BC0180912F01909130010C943D017F
S11302B02F923F924F925F926F927F928F929F9272
S11302C0AF92BF92CF92DF92EF92FF920F931F9360
S11302D0CF93DF93CDB7DEB7A8970FB6F894DEBF00
S11302E00FBECDBF2C013B018A019E012F5F3F4F02
S11302F03AA329A3D3016C91662309F4BAC16532E8
S113030061F0BFEF6B1A7B0A062E000C770BC2015B
S11303100E943D011CA30BA33CC1F30121812033A6
S113032009F043C033962DA312962C91B12CA12C25
S1130330312C212C2A3209F056C0C8010296D8016A
S11303402D903C9037FE06C031942194310842E050
S1130350A42EB12C3F01BFEF6B1A7B0A20818C01C4
S1130360EE24EA94FE2C2E3209F04DC0D3012C91D8
S11303702A3209F43EC0F3013196F12CE12C3F01FD
S113038080ED820F8A3008F03EC03AE03E9DC00105
S11303903F9D900D11247C01E20EF11C27FDFA947F
S11303A080E3E81AF1082191EACF2D3221F0329648
S11303B0B0E2BDA3BBCF339612962C91B0E2BDA39D
S11303C052E0A52EB12CB4CF3AE0329DC001339D4A
S11303D0900D11241C01220E311C27FD3A9480E358
S11303E0281A310821913F0180ED820F8A3060F391
S11303F0B7CFF801E080F18011962C910E5F1F4F6A
S1130400F30132963F012C3639F46894A2F8D301F3
S11304102C91F30131963F01222309F42AC1243699
S113042009F4A7C064F4223609F403C10CF0A4C093
S1130430283509F49BC0622F220F770B68CF23372E
S113044009F4AAC00CF08DC0E8E0F0E02F3699F76B
S1130450C801A2FEF1C004969CA38BA3D8014D91C0
S11304605D916D917C91243659F477FF09C07095A4
S11304706095509541955F4F6F4F7F4F6894A0F8FA
S1130480B42FA52FCB01283709F0E6C027E228A70F
S11304909E012F5F3F4F3FA32EA3912C812C6F0110
S11304A0F12CE12C6B2F7A2FA70196010E942C04CA
S11304B0762FB22FA32FCA016A3014F078A5760FD5
S11304C084010F5F1F4F60E3670FEEA1FFA16193EB
S11304D0FFA3EEA3232B242B252B39F00032110587
S11304E009F0BDC08FE1882E912CA0FE0BC0E1E085
S11304F0F0E0EC0FFD1FE00FF11F2DE220838401DB
S11305000E5F1F4F780132E0A322BB248DA1882EF9
S1130510880F9908A114B10421F4E214F30408F437
S1130520A0C0A1E0B0E0AC0FBD1F0A0F1B1FF80173
S113053062918F01062E000C770BC2010E943D01CF
S113054029A13AA12017310791F7E214F30408F521
S113055060E270E0C2010E943D013FEFE31AF30A3A
S1130560F4CF253731F0283709F065CFE0E1F0E02A
S11305706FCFEAE0F0E06CCF98012E5F3F4F3CA3D1
S11305802BA3D8016C91062E000C770BC2010E949C
S11305903D010BA11CA1AECEF8013296FCA3EBA346
S11305A0D801CD90DC90C114D10421F49AE2C92E73
S11305B091E0D92EF60101900020E9F731978F01DF
S11305C00C191D09F7FC04C0E016F10608F48701B4
S11305D0B2E0AB22BB24EDA18E2EEE0F990806C02B
S11305E0B401C2010E943D010F5F1F4FA114B10469
S11305F019F402151305A0F3D6016D916D0166235C
S113060019F0E114F10459F40215130510F660E22F
S113061070E0C2010E943D010F5F1F4FF5CF062E0F
S1130620000C770BC2010E943D01F1E0EF1AF108C2
S1130630E3CFE2E0F0E00CCF02969CA38BA3D801B9
S11306404D915C9170E060E0243609F019CF052EDD
S1130650000C660B770B09CF37E038A719CF480198
S113066021CFB401C2010E943D019FEFE91AF90AAA
S113067051CFA8960FB6F894DEBF0FBECDBFDF9161
S1130680CF911F910F91FF90EF90DF90CF90BF908B
S1130690AF909F908F907F906F905F904F903F901E
S11306A02F9008950F931F93CF93DF938C01EB0149
S11306B06991611105C0DF91CF911F910F91089548
S11306C0062E000C770BC8010E943D01F1CFBC013E
S11306D080912F01909130010C945203CF93DF93BA
S11306E0CDB7DEB7AE014B5F5F4FFA0161917191F7
S11306F0AF0180912F01909130010E945801DF9148
S1130700CF910895CF93DF93CDB7DEB7AE01475FA6
S11307105F4F6F8178858D819E810E945801DF91A2
S1130720CF910895CF93DF93CDB7DEB78D819E81AE
S113073090932D0180932C01AE01475F5F4F6F8131
S1130740788590E080E00E945801E0912C01F091BE
S11307502D01108210922D0110922C01DF91CF9166
S11307600895E1ECF0E08081886D808383E390E07C
S11307709093C5008093C40008951F920F920FB602
S11307800F9211248F939F93EF93FF939091C60040
S113079080912E0187FD06C086FF11C09A3059F062
S11307A010922E01FF91EF919F918F910F900FBEA8
S11307B00F901F901895806880932E01F3CF9D3081
S11307C011F48064F9CFE82FEF73F0E0EF5CFE4F93
S11307D090838F5F80932E01803210F7E3CF1F92B6
S11307E00F920FB60F9211242F938F939F93EF9331
S11307F0FF9380912E018F73E2E3F1E091E098176B
S113080060F010922E01FF91EF919F918F912F91A3
S11308100F900FBE0F901F9018952091C00025FFD8
S1130820FCCF21912093C6009F5FE9CF0E94B103C2
S113083078948FE19EE40197F1F700C00000809165
S11308402E0187FFF6CF8091C00085FFFCCF8091F9
S113085031018093C600EDCFA1E21A2EAA1BBB1B67
S1130860FD010DC0AA1FBB1FEE1FFF1FA217B30778
S1130870E407F50720F0A21BB30BE40BF50B661F8E
S1130880771F881F991F1A9469F760957095809552
S113089090959B01AC01BD01CF010895F894FFCF61
S11308A00000000300000000530069000000000085
S11308B000010000000000006200000000000002CF
S10F08C0000000005300000000000000D5
S9030000FC
