S01300006F75747075742F6D61696E2E737265638C
S11300000C9434000C9451000C9451000C94510045
S11300100C9451000C9451000C9451000C94510018
S11300200C9451000C9451000C9451000C94510008
S11300300C9451000C9451000C9451000C945100F8
S11300400C9451000C9451000C9451000C945100E8
S11300500C9451000C9451000C9451000C945100D8
S11300600C9451000C94510011241FBECFEFD8E022
S1130070DEBFCDBF11E0A0E0B1E0E4E9F8E002C0EA
S113008005900D92AA33B107D9F721E0AAE3B1E0B4
S113009001C01D92AE34B207E1F70E94E7030C944D
S11300A048040C940000CF93C82F8A3019F48DE0D3
S11300B00E9453008091C00085FFFCCFC093C6000E
S11300C0CF9108958091C00087FFFCCF8091C60036
S11300D00895CF932091C00027FFFCCFC091C600A4
S11300E0BC018C2F0E9453008C2FCF91089530E0D7
S11300F020E040ED57E02817390709F40895FA0184
S11301003197F1F72F5F3F4FF6CF30E020E042E028
S113011050E02817390709F40895FA013197F1F7E7
S11301202F5F3F4FF6CF1F93CF93DF93182FEB0131
S1130130259A882381F0209751F02D9ACE010E94B0
S113014077002D98CE010E9477001150B1F7DF910E
S1130150CF911F910895209749F02D9ACE010E94C6
S113016077002D98CE010E947700F7CF1D9B02C027
S11301702D98EDCF2D9AEBCF1092C50083E3809399
S1130180C400E0ECF0E080818D7F808386E0809382
S1130190C20088E18093C100E8E4F1E08CE191E0E1
S11301A0938382838EE091E09183808383E590E062
S11301B090933D0180933C0108952091C00027FF56
S11301C006C02091C600FC01208381E0089580E0F0
S11301D00895FC01CB01309709F00994E0913A01AC
S11301E0F0913B01309741F09F012F5F3F4F3093D7
S11301F03B0120933A0160830895BC0180913C0146
S113020090913D010C94E9002F923F924F925F929E
S11302106F927F928F929F92AF92BF92CF92DF9212
S1130220EF92FF920F931F93CF93DF93CDB7DEB777
S1130230A8970FB6F894DEBF0FBECDBF2C013B01CB
S11302407A019E012F5F3F4F3AA329A3D3016C91FA
S1130250662309F4B5C1653261F0BFEF6B1A7B0AFE
S1130260062E000C770BC2010E94E900FCA2EBA24F
S113027039C1F3012181203309F041C033962DA304
S113028012962C91B12CA12C312C212C2A3209F05C
S113029054C0C7010296D7012D903C9037FE06C08A
S11302A031942194310822E0A22EB12C3F01BFEFFA
S11302B06B1A7B0A20817C010FEF1FEF2E3209F0AD
S11302C04CC0D3012C912A3209F43DC0F30131967C
S11302D010E000E03F0180ED820F8A3008F03DC05D
S11302E0AAE0A09FC001A19F900D11248C01020FD0
S11302F0111D27FD1A95005311092191EBCF2D32C1
S113030021F03296B0E2BDA3BDCF339612962C9164
S1130310B0E2BDA332E0A32EB12CB6CF3AE0329DB9
S1130320C001339D900D11241C01220E311C27FDA8
S11303303A9480E3281A310821913F0180ED820F1D
S11303408A3060F3B9CFF7010081118111962C91A5
S113035032967F01C30102963C012C3639F468942D
S1130360A2F8F3012081C30101963C01222309F480
S113037027C1243609F4A7C064F4223609F400C165
S11303800CF0A4C0283509F49BC0622F220F770B10
S11303906ACF233709F4A9C00CF08DC0E8E0F0E07F
S11303A02F3699F7C701A2FEEEC004969CA38BA337
S11303B0D7014D915D916D917C91243659F477FF6D
S11303C009C070956095509541955F4F6F4F7F4F71
S11303D06894A0F8B42FA52FCB01283709F0E3C007
S11303E027E228A79E012F5F3F4F3FA32EA3912C06
S11303F0812C6F01F12CE12C6B2F7A2FA701960130
S11304000E941D04762FB22FA32FCA016A3014F064
S113041078A5760F84010F5F1F4F60E3670FEEA18D
S1130420FFA16193FFA3EEA3232B242B252B39F0EB
S11304300032110509F0BAC08FE1882E912CA0FE7C
S11304400BC0E1E0F0E0EC0FFD1FE00FF11F2DE227
S1130450208384010E5F1F4F780132E0A322BB2466
S11304608DA1882E880F9908A114B10421F4E214F7
S1130470F30408F49DC0A1E0B0E0AC0FBD1F0A0F67
S11304801B1FF80162918F01062E000C770BC2012D
S11304900E94E90029A13AA12017310791F7E2143B
S11304A0F30400F560E270E0C2010E94E9003FEF4E
S11304B0E31AF30AF4CF253731F0283709F065CF72
S11304C0E0E1F0E06FCFEAE0F0E06CCFD701129604
S11304D0BCA3ABA3F7016081062E000C770BC2010D
S11304E00E94E900EBA0FCA0B1CE97012E5F3F4F24
S11304F03CA32BA3D701CD90DC90C114D10421F4EB
S113050097E3C92E91E0D92EC6010E943F047C01D5
S113051017FD04C00817190708F47801E2E0AE22B9
S1130520BB24FDA18F2EFF0F990807C0B401C2019F
S11305300E94E900BFEFEB1AFB0AA114B10419F4FD
S1130540E214F30498F3D6016D916D01662319F05A
S11305500115110561F4E214F30420F660E270E081
S1130560C2010E94E900BFEFEB1AFB0AF4CF062E8A
S1130570000C770BC2010E94E90001501109E3CF7E
S1130580E2E0F0E00FCF02969CA38BA3D7014D913C
S11305905C9170E060E0243609F01CCF052E000C5D
S11305A0660B770B0CCF37E038A71CCF480124CF5C
S11305B0B401C2010E94E9009FEFE91AF90A54CF7D
S11305C0A8960FB6F894DEBF0FBECDBFDF91CF91D2
S11305D01F910F91FF90EF90DF90CF90BF90AF905D
S11305E09F908F907F906F905F904F903F902F904F
S11305F008950F931F93CF93DF938C01EB016991BF
S1130600611105C0DF91CF911F910F910895062EBE
S1130610000C770BC8010E94E900F1CFBC01809166
S11306203C0190913D010C94F902CF93DF93CDB737
S1130630DEB7AE014B5F5F4FFA0161917191AF017B
S113064080913C0190913D010E940401DF91CF9182
S11306500895CF93DF93CDB7DEB7AE01475F5F4F09
S11306606F8178858D819E810E940401DF91CF91F5
S11306700895CF93DF93CDB7DEB78D819E8190939C
S11306803B0180933A01AE01475F5F4F6F817885EC
S113069090E080E00E940401E0913A01F0913B0176
S11306A0108210923B0110923A01DF91CF9108958C
S11306B084B18C6284B985B18C6285B924982C98F4
S11306C08CB581658CBD8DB581608DBD08958EBD61
S11306D00DB407FEFDCF089580E00E9467030DB4BA
S11306E007FEFDCF8EB50895CF93DF93D82FC62F85
S11306F02A9886E00E9467032A9A2A9882E00E9438
S113070067038D2F0E9467038C2F0E9467032A9A28
S1130710DF91CF910895CF93C82F2A9883E00E9448
S113072067038C2F0E9467030E946C032A9ACF915F
S113073008952A9885E00E9467030E946C032A9A10
S11307400895DF92EF92FF920F931F93CF93DF935D
S1130750D82E7A01D0E0C0E0062F10E0C017D107F0
S113076044F0DF91CF911F910F91FF90EF90DF90B4
S11307700895F70161917F018C2F8D0D0E94740300
S11307800E9499038111FCCF2196E8CFDF92EF926A
S1130790FF920F931F93CF93DF93D82E7A01D0E06B
S11307A0C0E0062F10E0C017D10744F0DF91CF91CD
S11307B01F910F91FF90EF90DF9008958C2F8D0D76
S11307C00E948B03F70181937F012196ECCF0F9355
S11307D01F93CF93DF930E94BC000E9458034AE208
S11307E051E06AE080E00E94A1034EE351E06AE038
S11307F080E00E94C603CEE3D1E004E311E08991D6
S11308001F928F931F930F930E9415030F900F90C5
S11308100F900F9081E0C834D80789F788E391E0FE
S11308209F938F930E9415030F900F9090E080E0A8
S1130830DF91CF911F910F910895A1E21A2EAA1B67
S1130840BB1BFD010DC0AA1FBB1FEE1FFF1FA2177C
S1130850B307E407F50720F0A21BB30BE40BF50B79
S1130860661F771F881F991F1A9469F76095709502
S1130870809590959B01AC01BD01CF010895FC01C9
S113088001900020E9F7809590958E0F9F1F0895A1
S1070890F894FFCF06
S11308940000000300000000530069000000000091
S11308A400010000000000006200000000000002DB
S11308B400000000530000000000000102030405CE
S10D08C406070809257509000A005B
S9030000FC
