S01300006F75747075742F6D61696E2E737265638C
S11300000C9434000C9451000C9451000C94510045
S11300100C9451000C9451000C9451000C94510018
S11300200C9451000C9451000C9451000C94510008
S11300300C9451000C9451000C9451000C945100F8
S11300400C9451000C9451000C9451000C945100E8
S11300500C9451000C9451000C9451000C945100D8
S11300600C9451000C94510011241FBECFEFD8E022
S1130070DEBFCDBF11E0A0E0B1E0E6E4FCE002C0E9
S113008005900D92AA33B107D9F721E0AAE3B1E0B4
S113009001C01D92A434B207E1F70E9462040C94DB
S11300A021060C940000CF93C82F8A3019F48DE0F8
S11300B00E9453008091C00085FFFCCFC093C6000E
S11300C0CF9108958091C00087FFFCCF8091C60036
S11300D00895CF932091C00027FFFCCFC091C600A4
S11300E0BC018C2F0E9453008C2FCF910895FC01EA
S11300F0908121E030E001C0220F6A95EAF7922B4B
S113010090830895FC01408121E030E001C0220F7A
S11301106A95EAF720952423208308954F925F92ED
S11301206F927F928F929F92AF92BF92CF92DF9203
S1130130EF92FF920F931F93CF93DF93182F259A7B
S1130140882309F491C06115710509F468C090E031
S113015080E00E94F4042B013C0120E030E04AEFEF
S113016054E40E9483056B017C010E94C5044B0189
S113017020E030E040E85FE3C701B6010E94C0041C
S1130180C1E0D0E087FFE40188ECA82EB12C2D9AC1
S113019020E030E040E85FE3C701B6010E94C004FC
S11301A087FD54C020E03FEF4FE757E4C701B60195
S11301B00E947E0518160CF049C020E030E040E2B1
S11301C051E4C301B2010E9483050E94C504611574
S11301D07105B1F52D9820E030E040E85FE3C701F8
S11301E0B6010E94C00487FD3BC020E03FEF4FE70B
S11301F057E4C701B6010E947E0518168CF520E06D
S113020030E040E251E4C301B2010E9483050E9440
S1130210C50461157105F1F4115009F0B8CFDF91EF
S1130220CF911F910F91FF90EF90DF90CF90BF90EF
S1130230AF909F908F907F906F905F904F900895B4
S1130240C5010197F1F761507109C1CFCE01019742
S1130250F1F7C0CFC5010197F1F761507109D9CF0A
S1130260CE010197F1F7D8CF6115710509F479C072
S113027090E080E00E94F4044B015C0120E030E057
S11302804AEF54E40E9483056B017C010E94C5047B
S11302902B0120E030E040E85FE3C701B6010E9493
S11302A0C004C1E0D0E087FFE20108EC10E02D9A21
S11302B020E030E040E85FE3C701B6010E94C004DB
S11302C087FD47C020E03FEF4FE757E4C701B60181
S11302D00E947E0518160CF03CC020E030E040E29D
S11302E051E4C501B4010E9483050E94C50461154F
S11302F0710549F52D9820E030E040E85FE3C7013F
S1130300B6010E94C00487FD28C020E03FEF4FE7FC
S113031057E4C701B6010E947E051816F4F420E0E4
S113032030E040E251E4C501B4010E9483050E941B
S1130330C5046115710509F4BACFC8010197F1F735
S113034061507109F6CFC8010197F1F76150710945
S1130350CECFCE010197F1F7CDCFCE010197F1F7C2
S1130360A6CF259A1D9B02C02D9859CF2D9A57CF01
S11303701092C50083E38093C400E0ECF0E0808138
S11303808D7F808386E08093C20088E18093C100E2
S1130390EEE3F1E08CE191E0938382838EE091E0DF
S11303A09183808383E590E090933D0180933C01A9
S11303B008952091C00027FF06C02091C600FC01CB
S11303C0208381E0089580E00895FC01CB013097FB
S11303D009F00994E0913A01F0913B01309741F022
S11303E09F012F5F3F4F30933B0120933A0160837D
S11303F00895BC0180913C0190913D010C94E5016C
S11304002F923F924F925F926F927F928F929F9220
S1130410AF92BF92CF92DF92EF92FF920F931F930E
S1130420CF93DF93CDB7DEB7A8970FB6F894DEBFAE
S11304300FBECDBF2C013B017A019E012F5F3F4FC0
S11304403AA329A3D3016C91662309F4B5C165329B
S113045061F0BFEF6B1A7B0A062E000C770BC2010A
S11304600E94E501FCA2EBA239C1F30121812033F2
S113047009F041C033962DA312962C91B12CA12CD6
S1130480312C212C2A3209F054C0C7010296D7011D
S11304902D903C9037FE06C031942194310822E01F
S11304A0A22EB12C3F01BFEF6B1A7B0A20817C0185
S11304B00FEF1FEF2E3209F04CC0D3012C912A32DA
S11304C009F43DC0F301319610E000E03F0180EDF6
S11304D0820F8A3008F03DC0AAE0A09FC001A19F0E
S11304E0900D11248C01020F111D27FD1A95005344
S11304F011092191EBCF2D3221F03296B0E2BDA348
S1130500BDCF339612962C91B0E2BDA332E0A32E58
S1130510B12CB6CF3AE0329DC001339D900D112429
S11305201C01220E311C27FD3A9480E3281A31085D
S113053021913F0180ED820F8A3060F3B9CFF7013A
S11305400081118111962C9132967F01C30102968C
S11305503C012C3639F46894A2F8F3012081C301DC
S113056001963C01222309F427C1243609F4A7C0CB
S113057064F4223609F400C10CF0A4C0283509F44F
S11305809BC0622F220F770B6ACF233709F4A9C0CF
S11305900CF08DC0E8E0F0E02F3699F7C701A2FE19
S11305A0EEC004969CA38BA3D7014D915D916D91F0
S11305B07C91243659F477FF09C070956095509565
S11305C041955F4F6F4F7F4F6894A0F8B42FA52FCC
S11305D0CB01283709F0E3C027E228A79E012F5F4B
S11305E03F4F3FA32EA3912C812C6F01F12CE12CC2
S11305F06B2F7A2FA70196010E949E04762FB22FAB
S1130600A32FCA016A3014F078A5760F84010F5F16
S11306101F4F60E3670FEEA1FFA16193FFA3EEA359
S1130620232B242B252B39F00032110509F0BAC0F5
S11306308FE1882E912CA0FE0BC0E1E0F0E0EC0FDE
S1130640FD1FE00FF11F2DE2208384010E5F1F4F79
S1130650780132E0A322BB248DA1882E880F99084B
S1130660A114B10421F4E214F30408F49DC0A1E040
S1130670B0E0AC0FBD1F0A0F1B1FF80162918F0180
S1130680062E000C770BC2010E94E50129A13AA1B4
S11306902017310791F7E214F30400F560E270E0EB
S11306A0C2010E94E5013FEFE31AF30AF4CF2537B4
S11306B031F0283709F065CFE0E1F0E06FCFEAE0F0
S11306C0F0E06CCFD7011296BCA3ABA3F701608115
S11306D0062E000C770BC2010E94E501EBA0FCA0E2
S11306E0B1CE97012E5F3F4F3CA32BA3D701CD90F2
S11306F0DC90C114D10421F493E3C92E91E0D92EE6
S1130700C6010E9418067C0117FD04C008171907CA
S113071008F47801E2E0AE22BB24FDA18F2EFF0F86
S1130720990807C0B401C2010E94E501BFEFEB1AAA
S1130730FB0AA114B10419F4E214F30498F3D601EA
S11307406D916D01662319F00115110561F4E21430
S1130750F30420F660E270E0C2010E94E501BFEFFD
S1130760EB1AFB0AF4CF062E000C770BC2010E9491
S1130770E50101501109E3CFE2E0F0E00FCF02966A
S11307809CA38BA3D7014D915C9170E060E024366B
S113079009F01CCF052E000C660B770B0CCF37E04D
S11307A038A71CCF480124CFB401C2010E94E5013F
S11307B09FEFE91AF90A54CFA8960FB6F894DEBF52
S11307C00FBECDBFDF91CF911F910F91FF90EF909E
S11307D0DF90CF90BF90AF909F908F907F906F905D
S11307E05F904F903F902F9008950F931F93CF9356
S11307F0DF938C01EB016991611105C0DF91CF9109
S11308001F910F910895062E000C770BC8010E94CA
S1130810E501F1CFBC0180913C0190913D010C9424
S1130820F503CF93DF93CDB7DEB7AE014B5F5F4FD8
S1130830FA0161917191AF0180913C0190913D0168
S11308400E940002DF91CF910895CF93DF93CDB73B
S1130850DEB7AE01475F5F4F6F8178858D819E81E2
S11308600E940002DF91CF910895CF93DF93CDB71B
S1130870DEB78D819E8190933B0180933A01AE0156
S1130880475F5F4F6F81788590E080E00E940002AF
S1130890E0913A01F0913B01108210923B011092D9
S11308A03A01DF91CF91089530E020E048EE53E023
S11308B02817390709F40895FA013197F1F72F5FE2
S11308C03F4FF6CF0E94B801259A2D9888E19EE00B
S11308D00FB6F894A895809360000FBE90936000C3
S11308E0A89588E893E128EC30E0F9013197F1F715
S11308F00197D9F72D9A8AE291E09F938F930E94F2
S113090011040F900F9080E593EC28EC30E0F9018E
S11309103197F1F70197D9F7C4E3D1E008EC10E07F
S1130920DF93CF930E9411040F900F9080E197E220
S1130930F8013197F1F70197D9F7F2CFA1E21A2E16
S1130940AA1BBB1BFD010DC0AA1FBB1FEE1FFF1F6F
S1130950A217B307E407F50720F0A21BB30BE40BBF
S1130960F50B661F771F881F991F1A9469F7609506
S11309707095809590959B01AC01BD01CF010895C0
S11309800E94310508F481E008950E945D0588F015
S11309909F5798F0B92F9927B751B0F0E1F0660F3F
S11309A0771F881F991F1AF0BA95C9F714C0B13080
S11309B091F00E947705B1E008950C947705672FB4
S11309C0782F8827B85F39F0B93FCCF386957795AF
S11309D06795B395D9F73EF4909580957095619598
S11309E07F4F8F4F9F4F0895E89409C097FB3EF4C3
S11309F090958095709561957F4F8F4F9F4F992368
S1130A00A9F0F92F96E9BB279395F69587957795E5
S1130A106795B795F111F8CFFAF4BB0F11F460FFA5
S1130A201BC06F5F7F4F8F4F9F4F16C0882311F0FD
S1130A3096E911C0772321F09EE8872F762F05C011
S1130A40662371F096E8862F70E060E02AF09A95AC
S1130A50660F771F881FDAF7880F9695879597F9A1
S1130A600895990F0008550FAA0BE0E8FEEF16163B
S1130A701706E807F907C0F012161306E407F5078E
S1130A8098F0621B730B840B950B39F40A2661F002
S1130A90232B242B252B21F408950A2609F4A140A5
S1130AA0A6958FEF811D811D089557FD9058440F21
S1130AB0551F59F05F3F71F04795880F97FB991FB9
S1130AC061F09F3F79F08795089512161306140676
S1130AD0551FF2CF4695F1DF08C016161706180603
S1130AE0991FF1CF86957105610508940895E894DE
S1130AF0BB2766277727CB0197F908950E94310514
S1130B0008F48FEF08950E9496050C9407060E943E
S1130B10F90538F00E94000620F0952311F00C949A
S1130B20F0050C94F60511240C9478050E945505E3
S1130B3070F3959FC1F3950F50E0551F629FF0012C
S1130B40729FBB27F00DB11D639FAA27F00DB11D45
S1130B50AA1F649F6627B00DA11D661F829F2227CE
S1130B60B00DA11D621F739FB00DA11D621F839F55
S1130B70A00D611D221F749F3327A00D611D231F2B
S1130B80849F600D211D822F762F6A2F11249F5779
S1130B9050409AF0F1F088234AF0EE0FFF1FBB1F7C
S1130BA0661F771F881F91505040A9F79E3F51053B
S1130BB080F00C94F0050C9478055F3FE4F3983EC4
S1130BC0D4F3869577956795B795F795E7959F5FE5
S1130BD0C1F7FE2B880F911D9695879597F9089577
S1130BE097F99F6780E870E060E008959FEF80ECDC
S1130BF0089500240A94161617061806090608957F
S1130C0000240A9412161306140605060895092EE4
S1130C100394000C11F4882352F0BB0F40F4BF2B53
S1130C2011F460FF04C06F5F7F4F8F4F9F4F089593
S1130C30FC0101900020E9F7809590958E0F9F1F8D
S1090C400895F894FFCFB3
S1130C4600000003000000005300690000000000DB
S1130C560001000000000000620000000000000225
S1130C6600000000530000000000776174636864AC
S10D0C766F670A00746573740A00C6
S9030000FC
