:100000000C9434000C9449000C9449000C94490061
:100010000C9449000C9449000C9449000C9449003C
:100020000C9449000C9449000C9449000C9449002C
:100030000C9449000C9449000C9449000C9449001C
:100040000C9449000C9449000C9449000C9449000C
:100050000C9449000C9449000C9449000C944900FC
:100060000C9449000C94490011241FBECFEFD8E036
:10007000DEBFCDBF11E0A0E0B1E0EAE6F3E002C0F0
:1000800005900D92A231B107D9F70E945B010C9443
:10009000B3010C9400000F931F93CF93DF93CDB760
:1000A000DEB7EF81F88549855A859E01255F3F4F70
:1000B00090E080E061E070E0D9018417150644F01B
:1000C0008081892B8083DF91CF911F910F910895BB
:1000D0002E5F3F4F8B010C9002C0000F111F0A943E
:1000E000E2F7902B8F5FE8CF0F931F93CF93DF93AF
:1000F000CDB7DEB7EF81F88549855A859E01255F2A
:100100003F4F9FEF80E001E010E0D9018417150612
:1001100044F0808189238083DF91CF911F910F91DB
:1001200008952E5F3F4FB8010C9002C0660F771FF5
:100130000A94E2F76095709596238F5FE6CF30E0E2
:1001400020E040ED57E02817390709F40895FA0137
:100150003197F1F72F5F3F4FF6CF30E020E042E0DC
:1001600050E02817390709F40895FA013197F1F79B
:100170002F5F3F4FF6CF1F93CF93DF93182FEB01E5
:10018000259A882381F0209751F02D9ACE010E9464
:100190009F002D98CE010E949F001150B1F7DF9172
:1001A000CF911F910895209749F02D9ACE010E947A
:1001B0009F002D98CE010E949F00F7CF1D9B02C08B
:1001C0002D98EDCF2D9AEBCFCF93C82F8A3019F40D
:1001D0008DE00E94E4008091C00085FFFCCFC093B9
:1001E000C60090E080E0CF910895CF92DF92EF9229
:1001F000FF920F931F93CF93DF9300D000D000D0D6
:10020000CDB7DEB7FE017196C190D1908F01F60196
:10021000808181110FC026960FB6F894DEBF0FBE05
:10022000CDBFDF91CF911F910F91FF90EF90DF90A5
:10023000CF900895853231F00E94E4008FEFC81A04
:10024000D80AE5CFF6018181843681F08837E9F05C
:10025000F12CE1E0F0E0EC0FFD1FEF0DF11D8081CE
:10026000811119C0FFEFCF1ADF0AE8CF7801F2E061
:10027000EF0EF11C4AE0BE016F5F7F4FF8018081F5
:1002800091810E947E018701E3CF7801F2E0EF0EB9
:10029000F11C40E1F0CF0E94E400F394DACFE1ECEE
:1002A000F0E080818860808383E390E09093C500D4
:1002B0008093C40008950E944F01C0E080E0E82EC2
:1002C00081E0F82E09E011E01F92CF93FF92EF92A8
:1002D0000E94F5001F92CF931F930F930E94F50089
:1002E000CF5F88EE93E00E949F008DB79EB708967F
:1002F0000FB6F8949EBF0FBE8DBFE6CFBB274A3026
:1003000031F4992322F4BDE2909581959F4F0C948E
:100310008A01BB27FB015527AA27880F991FAA1F0F
:10032000A41710F0A41B83955051B9F7A05DAA3310
:1003300008F0A95DA193009779F7B111B1931192DB
:10034000CB010C94A301DC01FC01672F7191772391
:10035000E1F7329704C07C916D9370836291AE1780
:0A036000BF07C8F30895F894FFCF1B
:10036A006465633A2025640A006865783A2025782E
:02037A000A0077
:00000001FF
