:100000000C9434000C9451000C9451000C94510049
:100010000C9451000C9451000C9451000C9451001C
:100020000C9451000C9451000C9451000C9451000C
:100030000C9451000C9451000C9451000C945100FC
:100040000C9451000C9451000C9451000C945100EC
:100050000C9451000C9472060C9451000C945100B5
:100060000C9451000C94510011241FBECFEFD8E026
:10007000DEBFCDBF11E0A0E0B1E0E4EEF2E102C0EE
:1000800005900D92AC33B107D9F721E0ACE3B1E0B4
:1000900001C01D92A834B207E1F70E9491060C94AA
:1000A00070090C940000CF93C82F8A3019F48DE0AA
:1000B0000E9453008091C00085FFFCCFC093C60012
:1000C000CF9108958091C00087FFFCCF8091C6003A
:1000D0000895CF932091C00027FFFCCFC091C600A8
:1000E000BC018C2F0E9453008C2FCF910895CF928A
:1000F000DF92EF92FF92CF93DF936B017C01D0E010
:10010000C0E020E030E040E251E4C701B6010E94C7
:10011000E40887FF12C020E030E040E85FE3C70159
:10012000B6010E94850787FD2AC0CE01DF91CF91DD
:10013000FF90EF90DF90CF90089520E030E543EC02
:1001400057E4C701B6010E94E40887FD0CC020E017
:1001500030E543EC57E4C701B6010E948A076B0102
:100160007C012596CECF20E030E040E251E4C7018B
:10017000B6010E948A076B017C012196C2CF2CEA4E
:1001800035EC47E257E3C701B6010E94850787FFB8
:100190000CC020E030E543EC57E4C701B6010E94F3
:1001A000FA086B017C012597B6CF20E030E040E2F1
:1001B00051E4C701B6010E94FA086B017C01219746
:1001C000AACFCF93DF93EC0160E070E080E89FE37B
:1001D0001C161D062CF02097B1F4DF91CF910895E5
:1001E000C530D10544F020E030E543EC57E40E94EF
:1001F000FA082597EDCF20E030E040E251E40E947C
:10020000FA082197E5CFCC3F2FEFD20744F420E046
:1002100030E543EC57E40E948A072596DCCF20E0C6
:1002200030E040E251E40E948A072196D4CFFC01DD
:10023000908121E030E001C0220F6A95EAF7922B0D
:1002400090830895FC01408121E030E001C0220F3D
:100250006A95EAF720952423208308954F925F92B0
:100260006F927F928F929F92AF92BF92CF92DF92C6
:10027000EF92FF920F931F93CF93DF93182F259A3E
:10028000882309F491C06115710509F468C090E0F4
:1002900080E00E9432082B013C0120E030E04AEF70
:1002A00054E40E94FA086B017C010E9403084B0190
:1002B00020E030E040E85FE3C701B6010E94850717
:1002C000C1E0D0E087FFE40188ECA82EB12C2D9A84
:1002D00020E030E040E85FE3C701B6010E948507F7
:1002E00087FD54C020E03FEF4FE757E4C701B60158
:1002F0000E94E40818160CF049C020E030E040E20B
:1003000051E4C301B2010E94FA080E94030861157A
:100310007105B1F52D9820E030E040E85FE3C701BA
:10032000B6010E94850787FD3BC020E03FEF4FE705
:1003300057E4C701B6010E94E40818168CF520E0C6
:1003400030E040E251E4C301B2010E94FA080E9489
:10035000030861157105F1F4115009F0B8CFDF9170
:10036000CF911F910F91FF90EF90DF90CF90BF90B2
:10037000AF909F908F907F906F905F904F90089577
:10038000C5010197F1F761507109C1CFCE01019705
:10039000F1F7C0CFC5010197F1F761507109D9CFCD
:1003A000CE010197F1F7D8CF6115710509F479C035
:1003B00090E080E00E9432084B015C0120E030E0D8
:1003C0004AEF54E40E94FA086B017C010E94030882
:1003D0002B0120E030E040E85FE3C701B6010E9456
:1003E0008507C1E0D0E087FFE20108EC10E02D9A1C
:1003F00020E030E040E85FE3C701B6010E948507D6
:1004000087FD47C020E03FEF4FE757E4C701B60143
:100410000E94E40818160CF03CC020E030E040E2F6
:1004200051E4C501B4010E94FA080E940308611555
:10043000710549F52D9820E030E040E85FE3C70101
:10044000B6010E94850787FD28C020E03FEF4FE7F7
:1004500057E4C701B6010E94E4081816F4F420E03E
:1004600030E040E251E4C501B4010E94FA080E9464
:1004700003086115710509F4BACFC8010197F1F7B6
:1004800061507109F6CFC8010197F1F76150710908
:10049000CECFCE010197F1F7CDCFCE010197F1F785
:1004A000A6CF259A1D9B02C02D9859CF2D9A57CFC4
:1004B0001092C50083E38093C400E0ECF0E08081FB
:1004C0008D7F808386E08093C20088E18093C100A5
:1004D000E2E4F1E08CE191E0938382838EE091E0AD
:1004E0009183808383E590E090933F0180933E0168
:1004F00008952091C00027FF06C02091C600FC018E
:10050000208381E0089580E00895FC01CB013097BD
:1005100009F00994E0913C01F0913D01309741F0E0
:100520009F012F5F3F4F30933D0120933C0160833B
:100530000895BC0180913E0190913F010C94850289
:100540002F923F924F925F926F927F928F929F92E3
:10055000AF92BF92CF92DF92EF92FF920F931F93D1
:10056000CF93DF93CDB7DEB7E5970FB6F894DEBF34
:100570000FBECDBF1C015B016A019E012F5F3F4F83
:100580003AA329A3AE014E5F5F4F5CA34BA3D501F5
:100590006C91662309F420C3653261F0BFEFAB1A9A
:1005A000BB0A062E000C770BC1010E948502DCA657
:1005B000CBA6D3C0F5011181103311F5339620E39A
:1005C0002DA712961C91912C812C1A3241F118A65C
:1005D0001FA22AE05F0180ED810F8A30B0F54FA1A4
:1005E00058A5249FC001259F900D1124810F911DB6
:1005F00017FD9A95DC01D097B8A7AFA31191EACF68
:100600001D3221F03296B0E2BDA7DDCF33961296AF
:100610001C91B0E2BDA7B2E08B2E912CD6CF9601F3
:100620002E5F3F4FD6018D919C9197FF06C091950B
:1006300081959109A2E08A2E912C98A78FA35F0142
:10064000BFEFAB1ABB0A10816901EE24EA94FE2CBD
:100650001E3241F5F50110811A32C1F03196F12CAC
:10066000E12C2AE05F0180ED810F8A30D8F42E9DC5
:10067000C0012F9D900D11247C01E10EF11C17FD8E
:10068000FA9450E3E51AF1081191ECCFD601ED9000
:10069000FC90118196012E5F3F4F6901A5014E5FCD
:1006A0005F4F5A011C3639F4689482F8D5011C91C9
:1006B000F50131965F01112309F48EC21736BCF49F
:1006C00015360CF09BC0123609F4EAC14CF415340F
:1006D00009F494C0183589F1612F110F770B64CF9D
:1006E000133671F11436C1F72AE030E007C0133732
:1006F000B9F1FCF428E030E01F3671F782FED3C177
:10070000A6014C5F5F4F5CA74BA7D6014D915D9151
:100710006D917C91143609F0D9C177FFD7C17095DE
:100720006095509541955F4F6F4F7F4F689480F86B
:10073000CDC11537C9F2183779F620E130E0DECFA8
:1007400096012E5F3F4F3CA72BA7D6016C91062E3A
:10075000000C770BC1010E948502CBA4DCA417CF4B
:10076000F6013296FCA7EBA7D6010D911C9101155D
:10077000110511F40AE311E0C8010E9467096C0138
:10078000F7FC04C0E816F90608F467013401E2E05A
:100790006E227724FDA58F2EFF0F990807C0B401A4
:1007A000C1010E948502BFEFCB1ADB0A61147104FC
:1007B00029F42FA138A5C216D30688F3D8016D916C
:1007C0008D01662319F0E114F10471F4EFA1F8A58D
:1007D000CE16DF0610F660E270E0C1010E948502CD
:1007E000BFEFCB1ADB0AF2CF062E000C770BC1014C
:1007F0000E94850231E0E31AF108E0CF96012C5FF8
:100800003F4F3CA72BA7D6014D905D906D907C90FB
:10081000C301B2010E94F308892B09F01BC1F7FE46
:1008200003C066E0E62EF12C20E030E0A901C30110
:10083000B2010E9485070BE287FF05C077FA70942A
:1008400077F870940DE2C301B2010E94E9089EA3FB
:100850008DA3892B09F0B7C1163609F0B9C08827D6
:1008600099278E199F090E94E10020E030E040E0C6
:100870005FE30E94FA089B01AC01C301B2010E9430
:1008800019072B013C010E9477006C0197FF02C001
:10089000D12CC12CC6018E0D9F1D4D970CF099C116
:1008A000AE014F5F5F4F0D3221F40983AE014E5F01
:1008B0005F4F5AA749A7F194E194F108C6010E943D
:1008C000E1006EA77FA788AB99AB9B01AC01C30188
:1008D000B2010E948A070E94FC076AAB7BAB8CAB1B
:1008E0009DABAAA9BBA9BD01BB0F880B990B0E94A8
:1008F00034082EA53FA548A959A90E94FA089B01D2
:10090000AC01C301B2010E9418072B013C01E9A50B
:10091000FAA5BFEFCB16DB0629F431962EE2A9A586
:10092000BAA52C93AF014F5F5F4F5AA749A78AA979
:10093000805D808351E0C51AD108CE14DF040CF02D
:10094000BDCF1636D1F011838DA19EA197FF80C037
:100950009195819591099EA38DA38DE282838DA1AE
:100960009EA16AE070E00E94CE06605D6383DF01B5
:100970001596BAA7A9A7805D8483A9A5BAA51C92DC
:10098000CE0101960E9467098C017401B2E0EB224E
:10099000FF24EDA58E2EEE0F9908E114F10409F461
:1009A0006BC09E012F5F3F4F7901D7016D917D0193
:1009B00061116FC0EFA1F8A50E171F0708F0CDCE8B
:1009C00060E270E0C1010E9485020F5F1F4FF2CF0D
:1009D00020E030E0A901C301B2010E94850788230D
:1009E000A1F1C301B2010E9477008E199F090E94F4
:1009F000E10020E030E040E05FE30E94FA08A3015C
:100A000092010E9419072B013C010E947700843655
:100A100091050CF0DEC0BAE1EB16F1040CF0D9C080
:100A20009EA38DA38D399F4F24F42DE93FEF3EA364
:100A30002DA38DA19EA10E94E1009B01AC01C301E9
:100A4000B2010E948A072B013C01D12CC12C28CF76
:100A50008BE284CFEAE2F1E039A12AA1A32FB22FE1
:100A60009D012F5F3F4F3AA729A781918C93D90110
:100A700080818111F5CF81CF4FA158A504171507AB
:100A800008F08FCFB401C1010E9485020F5F1F4F94
:100A900084CF062E000C770BC1010E94850285CF02
:100AA00022E030E02BCEF6013296FCA7EBA71436FD
:100AB00041F4D6014D915C91052E000C660B770B2D
:100AC0002CCEF6014081518170E060E0FA01CB014B
:100AD00057E2D52E183711F047E0D42EAE014F5F04
:100AE0005F4F5EA34DA3F12CE12C2901712C612CE9
:100AF000BF01A30192010E94E206762FF901CA010B
:100B00006A3014F07D2D760F87010F5F1F4F705DE7
:100B1000ADA1BEA17D93BEA3ADA3232B242B252B7A
:100B200039F00032110509F044C08FE1E82EF12CB4
:100B300080FE0BC0E1E0F0E0EC0FFD1FE00FF11FC5
:100B40008DE2808387010E5F1F4F78016401B2E060
:100B5000CB22DD24EDA58E2EEE0F9908C114D10411
:100B600029F42FA138A5E216F30628F141E050E060
:100B70004C0F5D1F040F151FD8016E918D01062EBD
:100B8000000C770BC1010E948502E9A1FAA1E017D0
:100B9000F10791F72FA138A5E216F30608F0DDCD95
:100BA00060E270E0C1010E948502FFEFEF1AFF0AC8
:100BB000F1CF78019DCFB401C1010E948502FFEF02
:100BC000EF1AFF0ACBCFEEE2F1E009833BA12CA1A3
:100BD00045CFE2E3F1E0F9CFE5960FB6F894DEBF3A
:100BE0000FBECDBFDF91CF911F910F91FF90EF907E
:100BF000DF90CF90BF90AF909F908F907F906F903D
:100C00005F904F903F902F9008950F931F93CF9335
:100C1000DF938C01EB016991611105C0DF91CF91E8
:100C20001F910F910895062E000C770BC8010E94AA
:100C30008502F1CFBC0180913E0190913F010C945F
:100C40000506CF93DF93CDB7DEB7AE014B5F5F4FA5
:100C5000FA0161917191AF0180913E0190913F0144
:100C60000E94A002DF91CF910895CF93DF93CDB77B
:100C7000DEB7AE01475F5F4F6F8178858D819E81C2
:100C80000E94A002DF91CF910895CF93DF93CDB75B
:100C9000DEB78D819E8190933D0180933C01AE0132
:100CA000475F5F4F6F81788590E080E00E94A002EF
:100CB000E0913C01F0913D01108210923D011092B3
:100CC0003C01DF91CF910895ECE7F0E080818064F2
:100CD00080838081807F8083EAE7F0E080818B6879
:100CE000808308951F920F920FB60F9211248F9355
:100CF0009F93EF93FF938091780090917900909368
:100D0000410180934001EAE7F0E0808180648083C4
:100D1000FF91EF919F918F910F900FBE0F901F90B9
:100D200018950E9458023898409878940E9464065A
:100D300080917A00806480937A0008EC10E0C5E32B
:100D4000D1E080E197E2F8013197F1F70197D9F707
:100D50008FB7F89460914001709141018FBF90E08E
:100D600080E00E94320820E030EC4FE754E40E941B
:100D70008A0720E030E040EA50E40E94FA089F939E
:100D80008F937F936F93DF93CF930E9421060F90F1
:100D90000F900F900F900F900F90D3CF97FB072ECF
:100DA00016F4009407D077FD09D00E94040707FCD1
:100DB00005D03EF4909581959F4F0895709561956B
:100DC0007F4F0895A1E21A2EAA1BBB1BFD010DC087
:100DD000AA1FBB1FEE1FFF1FA217B307E407F507EB
:100DE00020F0A21BB30BE40BF50B661F771F881FC7
:100DF000991F1A9469F760957095809590959B015D
:100E0000AC01BD01CF010895AA1BBB1B51E107C076
:100E1000AA1FBB1FA617B70710F0A61BB70B881F8A
:100E2000991F5A95A9F780959095BC01CD01089519
:100E30005058BB27AA270E9430070C94AA080E948A
:100E40009C0838F00E94A30820F039F49F3F19F461
:100E500026F40C9499080EF4E095E7FB0C949308A3
:100E6000E92F0E94BB0858F3BA176207730784077B
:100E7000950720F079F4A6F50C94DD080EF4E095C2
:100E80000B2EBA2FA02D0B01B90190010C01CA0144
:100E9000A0011124FF27591B99F0593F50F4503EEF
:100EA00068F11A16F040A22F232F342F4427585FE1
:100EB000F3CF469537952795A795F0405395C9F7F9
:100EC0007EF41F16BA0B620B730B840BBAF09150B1
:100ED000A1F0FF0FBB1F661F771F881FC2F70EC050
:100EE000BA0F621F731F841F48F487957795679523
:100EF000B795F7959E3F08F0B0CF9395880F08F00F
:100F00009927EE0F9795879508950E946F0808F42A
:100F100081E008950E949E070C94AA080E94A308ED
:100F200058F00E949C0840F029F45F3F29F00C948F
:100F3000930851110C94DE080C9499080E94BB0888
:100F400068F39923B1F3552391F3951B550BBB27F8
:100F5000AA2762177307840738F09F5F5F4F220F3D
:100F6000331F441FAA1FA9F335D00E2E3AF0E0E834
:100F700032D091505040E695001CCAF72BD0FE2F7E
:100F800029D0660F771F881FBB1F26173707480712
:100F9000AB07B0E809F0BB0B802DBF01FF279358CA
:100FA0005F4F3AF09E3F510578F00C9493080C94F3
:100FB000DE085F3FE4F3983ED4F386957795679516
:100FC000B795F7959F5FC9F7880F911D96958795FF
:100FD00097F90895E1E0660F771F881FBB1F62171E
:100FE00073078407BA0720F0621B730B840BBA0BDC
:100FF000EE1F88F7E09508950E9403086894B111E8
:101000000C94DE0808950E94C30888F09F5798F05A
:10101000B92F9927B751B0F0E1F0660F771F881FFD
:10102000991F1AF0BA95C9F714C0B13091F00E9417
:10103000DD08B1E008950C94DD08672F782F88272C
:10104000B85F39F0B93FCCF3869577956795B3953E
:10105000D9F73EF490958095709561957F4F8F4FAD
:101060009F4F0895E89409C097FB3EF490958095B2
:10107000709561957F4F8F4F9F4F9923A9F0F92F5E
:1010800096E9BB279395F695879577956795B795DC
:10109000F111F8CFFAF4BB0F11F460FF1BC06F5FC2
:1010A0007F4F8F4F9F4F16C0882311F096E911C0D4
:1010B000772321F09EE8872F762F05C0662371F0F5
:1010C00096E8862F70E060E02AF09A95660F771F09
:1010D000881FDAF7880F9695879597F90895990FE5
:1010E0000008550FAA0BE0E8FEEF16161706E807F2
:1010F000F907C0F012161306E407F50798F0621B13
:10110000730B840B950B39F40A2661F0232B242BE7
:10111000252B21F408950A2609F4A140A6958FEF06
:10112000811D811D089597F99F6780E870E060E058
:1011300008959FEF80EC089500240A941616170670
:1011400018060906089500240A94121613061406B8
:1011500005060895092E0394000C11F4882352F01B
:10116000BB0F40F4BF2B11F460FF04C06F5F7F4FD3
:101170008F4F9F4F089557FD9058440F551F59F0BA
:101180005F3F71F04795880F97FB991F61F09F3F74
:1011900079F087950895121613061406551FF2CF9D
:1011A0004695F1DF08C0161617061806991FF1CFED
:1011B00086957105610508940895E894BB27662714
:1011C0007727CB0197F908950E946F0808F48FEFF5
:1011D00008950E94C30880E090E020F419F40EF412
:1011E0000297839508950E94C30880E090E009F07B
:1011F000881F08950E940D090C94AA080E949C085B
:1012000038F00E94A30820F0952311F00C94930865
:101210000C94990811240C94DE080E94BB0870F30A
:10122000959FC1F3950F50E0551F629FF001729F8B
:10123000BB27F00DB11D639FAA27F00DB11DAA1F9A
:10124000649F6627B00DA11D661F829F2227B00DE7
:10125000A11D621F739FB00DA11D621F839FA00D72
:10126000611D221F749F3327A00D611D231F849FC2
:10127000600D211D822F762F6A2F11249F57504019
:101280009AF0F1F088234AF0EE0FFF1FBB1F661F94
:10129000771F881F91505040A9F79E3F510580F05D
:1012A0000C9493080C94DE085F3FE4F3983ED4F36B
:1012B000869577956795B795F795E7959F5FC1F701
:1012C000FE2B880F911D9695879597F90895FC013F
:1012D00001900020E9F7809590958E0F9F1F08954B
:0412E000F894FFCFB0
:1012E400000000030000000053006900000000003B
:1012F4000001000000000000620000000000000285
:10130400000000005300000000004E614E00494EF2
:0C13140046004F5600252E32660A0000ED
:00000001FF
